:020000021000EC
:1000740093070000638807003715010013050594F2
:100084006F20402B6780000097510000938141D37B
:1000940013850104138681093306A64093050000E5
:1000A400EF00001A17250000130505296308050051
:1000B400171500001305C588EF20C027EF00800E38
:1000C400032501009305410013060000EF004007DB
:1000D4006F00400A03C7410563120704130101FFBF
:1000E40023248100138407002326110093070000B2
:1000F400638A0700374501001305055B970000007C
:10010400E7000000930710008320C100238AF10454
:10011400032481001301010167800000678000004F
:1001240093070000638C0700374501009385810520
:100134001305055B170300006700000067800000DB
:10014400130101FF2326110023248100130401015C
:10015400B73701001385075AEF0000299307000001
:10016400138507008320C1000324810013010101CA
:1001740067800000130101FF930500002324810020
:100184002326110013040500EF00802F03A50103AB
:100194008327C50363840700E78007001305040071
:1001A400EF20907F130101FF2324810023202101EC
:1001B40037440100374901009307445B1309495B45
:1001C4003309F940232611002322910013592940B1
:1001D400630009021304445B9304000083270400B2
:1001E4009384140013044400E7800700E31899FE85
:1001F40037440100374901009307445B1309C95B85
:100204003309F94013592940630009021304445B7C
:10021400930400008327040093841400130444000F
:10022400E7800700E31899FE8320C10003248100BE
:1002340083244100032901001301010167800000A8
:100244001303F00013070500637EC3029377F700DE
:100254006390070A63920508937606FF1376F60007
:10026400B386E6002320B7002322B7002324B70077
:100274002326B70013070701E366D7FE63140600BD
:1002840067800000B306C3409396260097020000DF
:10029400B38656006780C6002307B700A306B700DD
:1002A4002306B700A305B7002305B700A304B700CE
:1002B4002304B700A303B7002303B700A302B700C6
:1002C4002302B700A301B7002301B700A300B700BE
:1002D4002300B7006780000093F5F50F939685001F
:1002E400B3E5D50093960501B3E5D5006FF0DFF6CD
:1002F4009396270097020000B3865600938200006D
:10030400E78006FA93800200938707FF3307F740DC
:100314003306F600E378C3F66FF0DFF3130101FC54
:10032400232C81021304050013850500232A91025E
:10033400232E110293840500EF00C00BB737010090
:100344009387C75A2324F102930710002326F1024E
:10035400032784039307010293061500232AF1005F
:1003640093072000232091022322A102232ED100EF
:10037400232CF10083258400630E07048397C500B2
:10038400139727016342070203A74506B726000017
:10039400B3E7D700B7E6FFFF9386F6FF3377D700BE
:1003A4002396F50023A2E506130641011305040074
:1003B400EF00805E8320C103032481033335A00052
:1003C4003305A040832441031365A50013010104F0
:1003D40067800000130504002326B100EF000052DB
:1003E4008325C1006FF09FF99305050003A5410320
:1003F4006FF0DFF29377350013070500639C070461
:10040400B7867F7F9386F6F79305F0FF03260700F0
:1004140013074700B377D600B387D700B3E7C70005
:10042400B3E7D700E384B7FE8346C7FF0346D7FF8D
:100434008347E7FF3307A74063800604630A060285
:100444003335F0003305E5001305E5FF6780000050
:10045400E38806FA834707001307170093763700EB
:10046400E39807FE3307A7401305F7FF67800000F2
:100474001305D7FF678000001305C7FF67800000DE
:10048400130101FD232C410103AA010323202103AD
:100494002326110203298A14232481022322910290
:1004A400232E3101232A51012328610123267101BE
:1004B4002324810163000904130B0500938B0500B9
:1004C400930A10009309F0FF832449001384F4FF76
:1004D4006342040293942400B304990063840B04DC
:1004E40083A74410638077051304F4FF9384C4FF47
:1004F400E31634FF8320C1020324810283244102D2
:10050400032901028329C101032A8101832A4101AC
:10051400032B0101832BC100032C81001301010370
:10052400678000008327490083A644009387F7FF70
:10053400638E870423A20400E38806FA83278918BC
:1005440033978A00032C4900B377F70063920702BC
:10055400E78006000327490083278A146314870170
:10056400E38427F9E38807F8138907006FF0DFF5C0
:100574008327C91883A544083377F700631C070051
:1005840013050B00E78006006FF0DFFC23228900CF
:100594006FF09FFA13850500E78006006FF09FFB5C
:1005A4001305000067800000B72501009385854688
:1005B4006F0010131305000067800000130101FE93
:1005C400B7070100232E1100232C8100232A910058
:1005D400232821012326310123244101232251010F
:1005E40023206101032445009387C75A232EF50273
:1005F4001307C52E930730002324E52E2322F52E5E
:100604002320052E93074000130905002326F40038
:10061400130680009305000023220406232004000F
:10062400232204002324040023280400232A040092
:10063400232C04001305C405EFF09FC0372B0100E1
:1006440083248900B72A0100372A0100B729010051
:10065400130BCB00938A0A07130A8A0F938909168E
:10066400B7070100232064032322540323244403F3
:1006740023263403232E84009387970023A6F400B3
:10068400130680009305000023A2040623A004009F
:1006940023A2040023A4040023A8040023AA040022
:1006A40023AC04001385C405EFF09FB90324C900EB
:1006B400B707020023A0640323A2540323A4440322
:1006C40023A6340323AE9400938727012326F40042
:1006D40023220406232004002322040023240400EC
:1006E40023280400232A0400232C04001305C40532
:1006F4001306800093050000EFF09FB48320C1012E
:100704002320640323225403232444032326340391
:10071400232E84000324810193071000232CF90263
:1007240083244101032901018329C100032A810093
:10073400832A4100032B010013010102678000009A
:10074400130101FF1386F5FF2324810013141600FF
:100754003304C400131424003304C40013143400F9
:1007640023202101138905009305440723229100C6
:1007740023261100EF001002930405006300050214
:100784001305C50023A0040023A2240123A4A4006C
:100794001306840693050000EFF09FAA8320C1008E
:1007A40003248100032901001385040083244100EC
:1007B4001301010167800000130101FE23282101B8
:1007C40003A9010323263101232E11008327890362
:1007D400232C8100232A910023244101930905003D
:1007E400638A070A1309092E9304F0FF130A4000D1
:1007F40083274900032489009387F7FF63D8070000
:100804006F00400813048406638E97060317C40020
:100814009387F7FFE31807FEB707FFFF93871700D7
:10082400232204062320040023220400232404009A
:100834002326F40023280400232A0400232C040084
:1008440013068000930500001305C405EFF05F9FB5
:1008540023280402232A0402232204042324040454
:100864008320C10113050400032481018324410171
:10087400032901018329C100032A81001301010214
:100884006780000003240900630C040013090400BA
:100894006FF01FF613050900EFF05FD26FF09FF4BD
:1008A4009305C01A13850900EF00C06E13040500F8
:1008B400630605021305C500232004002322440116
:1008C4002324A4001306001A93050000EFF05F9799
:1008D40023208900130904006FF09FF123200900ED
:1008E4009307C00023A0F9006FF09FF703A501034D
:1008F400B7250100938585466F00805E83278503B5
:1009040063840700678000006FF05FCB678000009E
:1009140067800000678000006780000003A5410332
:10092400B70501009385455A6F00405103A5410363
:10093400B70501009385855B6F004050130101FFEB
:1009440023248100B7470100374401001304C45B2A
:100954009387075CB38787402322910023261100E5
:1009640093D42740638004029387C7FF33848700AE
:10097400832704009384F4FF1304C4FFE780070073
:10098400E39804FE8320C1000324810083244100F2
:100994001301010167800000832786006388073004
:1009A40083D7C500130101FD23248102232C4101B7
:1009B400232A5101232611022322910223202103F9
:1009C400232E31012328610123267101232481016F
:1009D400232291012320A10113F78700130A0600A3
:1009E400930A0500138405006306070803A705019D
:1009F4006302070813F7270083240A00630C07081F
:100A0400832744028325C401370B00809309000027
:100A140013090000134B0BC01386090013850A0049
:100A2400630209049306090063742B0193060B0007
:100A3400E78007006352A02683278A00B389A900B0
:100A44003309A9403385A7402324AA006300052065
:100A5400832744028325C4011386090013850A00F1
:100A6400E31209FC83A9040003A9440093848400CD
:100A74006FF09FFA9305040013850A00EF100075C8
:100A8400631A053A8357C40083240A0013F7270026
:100A9400E31807F613F7170063160712832C840074
:100AA40003250400370B0080934BEBFF130C00006D
:100AB40013090000134BFBFF630E090E13F7072005
:100AC40063080724138D0C006364992F13F70748F8
:100AD400630A0708832944018325040113071900C5
:100AE40093961900B386360193D9F601330DB540B8
:100AF400B389D90093D919403307A7011386090094
:100B040063F6E900930907001306070093F707400B
:100B1400638C072C9305060013850A00EF008047B9
:100B2400930C0500630005308325040113060D00B2
:100B3400EF00504C8357C40093F7F7B793E70708C7
:100B44002316F4003385AC01B387A941232894010B
:100B54002320A400232A3401930C09002324F40045
:100B6400130D090013060D0093050C00EF00505AF5
:100B7400032784008327040093090900B30C9741D9
:100B8400B387A701232494012320F4001309000050
:100B940003268A00330C3C01B309364123243A016D
:100BA4006386090A832C8400032504008357C40048
:100BB400E31609F003AC040003A944009384840001
:100BC4006FF09FEF130B000013050000130C0000DF
:100BD400930900006380090E6306050E93070B005A
:100BE400938B090063F43701938B070003250400FA
:100BF400832704018326440163F8A70003298400A2
:100C0400338926016340790F63CADB1A83274402C0
:100C14008325C40113060C0013850A00E78007002E
:100C240013090500635AA006330B2B41130510006A
:100C3400630C0B0403268A00330C2C01B38929416D
:100C44003309264123242A01E31609F81305000079
:100C54008320C10203248102832441020329010267
:100C64008329C101032A8101832A4101032B010144
:100C7400832BC100032C8100832C4100032D010030
:100C840013010103678000009305040013850A0023
:100C9400EF10D031E30005FA8317C40093E707048B
:100CA4002316F4001305F0FF6FF09FFA13050000FC
:100CB4006780000083A9440003AC0400938484008B
:100CC400E38A09FE138609009305A00013050C00AE
:100CD400EF00D0256302051413051500330B85417D
:100CE4006FF0DFEF93050C0013060900EF0050428C
:100CF400832704009305040013850A00B3872701A2
:100D04002320F400EF10902AE30005F26FF0DFF8DF
:100D14008327040163E8A704832944016364390534
:100D24001305090063F42B0113050B0093850900D7
:100D3400EF20807B93850900EF20C078832744024D
:100D44008325C4019306050013060C0013850A00CD
:100D5400E780070093090500E350A0F43309394103
:100D64006FF01FE393890C006374990193090900E0
:100D74001386090093050C00EF0090398327840043
:100D840003270400B3873741330737012324F400D2
:100D94002320E400E39407FC9305040013850A0070
:100DA400EF10D020E31A05EE330939416FF05FDE0E
:100DB400930C0900130D09006FF0DFDA13860B00A2
:100DC40093050C00EF00D03403278400832704002C
:100DD40013890B0033077741B38777012324E40099
:100DE4002320F4006FF05FE413850A00EF00D04481
:100DF400930C0500E31805D48325040113850A0028
:100E0400EF10903B8317C4001307C00023A0EA002F
:100E140093F7F7F76FF09FE893871900138B070098
:100E24006FF01FDC1307C0008317C40023A0EA007F
:100E34006FF0DFE61305F0FF6FF09FE1130101FE91
:100E44002328210123263101232441012322510196
:100E540023206101232E1100232C8100232A9100D9
:100E6400138B0500930A052E130A00009309100042
:100E74001309F0FF83A44A0003A48A009384F4FFB7
:100E840063C604028357C4009384F4FF63FCF9002F
:100E94008317E4001305040063862701E7000B00B1
:100EA400336AAA0013048406E39E24FD83AA0A007D
:100EB400E3920AFC8320C1010324810183244101BC
:100EC400032901018329C100832A4100032B010066
:100ED40013050A00032A8100130101026780000040
:100EE400130101FD23202103232E3101232C410171
:100EF400232A51012328610123267101232611028B
:100F04002324810223229102930A0500938B050076
:100F1400130B052E130A0000930910001309F0FFA8
:100F240083244B0003248B009384F4FF63C80402DE
:100F34008357C4009384F4FF63FEF9008317E4002D
:100F44009305040013850A0063862701E7800B00DC
:100F5400336AAA0013048406E39C24FD032B0B00CC
:100F6400E3100BFC8320C102032481028324410289
:100F7400032901028329C101832A4101032B0101B1
:100F8400832BC10013050A00032A81011301010305
:100F940067800000130101FD232E31012326110275
:100FA400232481022322910223202103232C4101A3
:100FB400232A51012328610123267101232481015D
:100FC400232291019387B50013076001930905005B
:100FD4006364F7069307000163E2B71EEF00502530
:100FE400930400019307800113062000138981C232
:100FF400B307F90003A44700138787FF6308E420BD
:10100400832744008326C4000326840093F7C7FF84
:10101400B307F40003A747002326D60023A4C60081
:10102400136717001385090023A2E700EF0090203F
:10103400130584006F00401993F487FF63C00718F9
:1010440063EEB416EF00D01E9307701F63FA974443
:1010540093D794006384071A130740006360F73C36
:1010640093D764001386970313858703931636007A
:10107400138981C2B306D90003A44600938686FF70
:10108400638686029305F0006F0000016352073205
:101094000324C400638C86008327440093F7C7FFAE
:1010A40033879740E3D4E5FE1306050003240901C2
:1010B4009308890063081417032544009306F0007D
:1010C4001375C5FFB307954063C2F640232A19017F
:1010D4002328190163DC073C9307F01F63E0A72E64
:1010E400937785FF9387870083254900B307F90029
:1010F40083A6070013555500130710003317A700E4
:101104003367B700938587FF2326B4002324D400D4
:101114002322E90023A0870023A6860093572640B4
:1011240093051000B395F5006368B710B3F7E500B5
:1011340063940702939515001376C6FFB3F7E50091
:1011440013064600639A070093951500B3F7E5006C
:1011540013064600E38A07FE1308F0001313360053
:1011640033036900130503008327C500130E06002B
:101174006308F52C03A747001384070083A7C7005F
:101184001377C7FFB30697406348D82CE3C206FE23
:101194003307E400832647000326840013850900EF
:1011A40093E616002322D7002326F60023A4C700C3
:1011B400EF005008130584006F0000019307C0007E
:1011C40023A0F900130500008320C1020324810237
:1011D40083244102032901028329C101032A8101D5
:1011E400832A4101032B0101832BC100032C8100BD
:1011F400832C410013010103678000009306002043
:10120400130600041305F0036FF09FE603A4C70060
:1012140013062600E39687DE032409019308890058
:10122400E31C14E903274900935726409305100053
:10123400B395F500E37CB7EE03248900832A4400C8
:1012440013FBCAFF63689B00B3079B401307F000BE
:10125400634CF71283AA810403A781039307F0FF69
:10126400330A6401B38A54016304F734B7170000E6
:101274009387F700B38AFA00B7F7FFFFB3FAFA00CF
:1012840093850A0013850900EF0050529307F0FF7D
:10129400930B05006306F52863624529138C010747
:1012A40083250C00B385BA002320BC009387050076
:1012B400630EAA3883A681031307F0FF6386E63A18
:1012C400338A4B41B307FA002320FC0093FC7B00D4
:1012D40063820C30B7170000B38B9B419385870062
:1012E400938B8B00B3859541B38A5B019387F7FF9A
:1012F400B385554133FAF50093050A0013850900B7
:10130400EF00D04A9307F0FF630AF53A33057541BD
:10131400B30A450183250C002324790193EA1A00BA
:10132400B305BA002320BC0023A25B016302243569
:101334009306F00063F266350327440093074BFFDE
:1013440093F787FF137717003367F7002322E4002E
:10135400130650003307F4002322C7002324C700D8
:1013640063E8F63683AA4B0013840B0003A74104F9
:101374006374B70023A2B10403A701046376B71A08
:1013840023A0B1046F00401A13E714002322E400E1
:10139400B30494002324990093E7170013850900EC
:1013A40023A2F400EF000069130584006FF0DFE16D
:1013B4008326C400032684006FF09FC593579500CD
:1013C400130740006372F71413074001636AF7229E
:1013D4009386C7059385B70593963600B306D9005F
:1013E40083A70600938686FF6388F61C03A747003D
:1013F4001377C7FF6376E50083A78700E398F6FEBB
:1014040083A6C700032749002326D4002324F4001D
:1014140023A4860023A687006FF05FD01307400142
:101424006376F71213074005636AF71E93D7C40067
:101434001386F7061385E706931636006FF05FC32D
:10144400130E1E0093773E0013058500638E07106C
:101454008327C5006FF0DFD10326840093E51400D1
:101464002322B4002326F60023A4C700B304940067
:10147400232A99002328990093E7160023A6140130
:1014840023A4140123A2F4003307E4001385090004
:101494002320D700EF00005A130584006FF0DFD239
:1014A40013D63400938784006FF05FB43307A4002D
:1014B400832747001385090093E717002322F700C9
:1014C400EF004057130584006FF01FD013E714009A
:1014D4002322E400B3049400232A990023289900CA
:1014E40013E7170023A6140123A4140123A2E40084
:1014F4003305A4002320F50013850900EF00805371
:10150400130584006FF05FCC9357650093869703AF
:1015140093858703939636006FF05FEC630E241176
:1015240003248900832A440093FACAFFB3879A40AC
:1015340063E69A001307F000E348F7E41385090013
:10154400EF00404F130500006FF01FC81386C70556
:101554001385B705931636006FF09FB18327830078
:101564001306F6FF6390671C93773600130383FF1B
:10157400E39607FE0327490093C7F5FFB3F7E70097
:101584002322F90093951500E3E8B7CAE38605CA58
:1015940033F7F500631A07009395150033F7F50048
:1015A400130E4E00E30A07FE13060E006FF01FBB76
:1015B400938A0A016FF0DFCC0325490093D52540B7
:1015C400130710003317B7003367A7002322E9007D
:1015D4006FF09FE3B3855B01B305B040939545017C
:1015E40013DA450193050A0013850900EF00101C66
:1015F4009307F0FFE31CF5D0130A00006FF09FD1AE
:10160400130740056360F7089357C5009386F706F0
:101614009385E706939636006FF05FDC1307401559
:101624006360F70893D7F400138687071385770759
:10163400931636006FF0DFA3138C010783270C0089
:10164400B387FA002320FC006FF0DFC613174A01AA
:10165400E31207C603248900B30A5B0193EA1A0064
:10166400232254016FF09FD023AC71036FF01FC687
:1016740013840B006FF09FCF9307100023A2FB008D
:101684006FF0DFEB130740156362F7069357F5001D
:101694009386870793857707939636006FF01FD458
:1016A400130740556362F70693D724011386D707BF
:1016B4001385C707931636006FF09F9B938C8CFF9E
:1016C400B38A9A01B38A7A41130A00006FF09FC467
:1016D4009305840013850900EF10002E032489006C
:1016E40083250C00832A44006FF05FC8130740551C
:1016F4006364F702935725019386D7079385C70739
:10170400939636006FF09FCD9306803F1306F00743
:101714001305E0076FF0DF959306803F9305E0071C
:101724006FF0DFCB832749006FF0DFE59377350057
:1017340093F6F50F638A07029307F6FF630E06021A
:101744001306F0FF6F0080011305150013773500B1
:10175400630E07009387F7FF6380C7020347050002
:10176400E314D7FE678000009307060013073000D8
:101774006366F702639607001305000067800000A4
:10178400B307F5006F00C00013051500E386A7FE3C
:1017940003470500E31AD7FE6780000093F5F50FB1
:1017A40093988500B3E5B80093980501B3E8B800B1
:1017B4003708FFFEB78580801308F8EF9385050886
:1017C400130330000327050033C7E800330607017D
:1017D4001347F7FF3377E6003377B700E31207FACE
:1017E4009387C7FF13054500E36EF3FCE39A07F8FC
:1017F4006FF09FF8B3C7A50093F73700B308C5008F
:10180400639207069307300063FEC704937735009D
:10181400130705006398070613F6C8FF930706FE2F
:10182400636CF708637CC70293860500930707007F
:1018340003A80600938747009386460023AE07FF5C
:10184400E3E8C7FE9307F6FFB387E74093F7C7FFC4
:10185400938747003307F700B385F50063681701E2
:101864006780000013070500E37C15FF83C70500AC
:101874001307170093851500A30FF7FEE36817FFFE
:101884006780000083C605001307170093773700AD
:10189400A30FD7FE93851500E38007F883C60500E0
:1018A4001307170093773700A30FD7FE938515000E
:1018B400E39A07FC6FF05FF683A6450083A2050058
:1018C40083AF850003AFC50083AE050103AE4501B8
:1018D40003A3850103A8C5012322D70083A605021B
:1018E400232057002324F7012326E7012328D701C7
:1018F400232AC701232C6700232E07012320D702A4
:101904001307470293854502E368F7FA6FF09FF1E6
:1019140063F6A502B387C5006372F5023307C500F9
:10192400630A060E83C6F7FF9387F7FF1307F7FFD3
:101934002300D700E398F5FE678000009307F000CA
:1019440063E8C702930705009306F6FF630C060CD1
:1019540093861600B386D70003C705009387170044
:1019640093851500A38FE7FEE398D7FE67800000F8
:10197400B3E7A50093F737006390070A930806FFBF
:1019840093F808FF938808013308150113870500AD
:1019940093070500832607001307070193870701B0
:1019A40023A8D7FE832647FF23AAD7FE832687FFD3
:1019B40023ACD7FE8326C7FF23AED7FEE31CF8FC77
:1019C4001377C600B38515011378F600630E070478
:1019D4001387050093880700130E300003230700C4
:1019E40013074700B306E84023A06800B386D50078
:1019F40093884800E364DEFE1307C8FF1377C7FF2C
:101A04001307470013763600B387E700B385E50074
:101A14006FF09FF3678000009306F6FF93070500BD
:101A24006FF01FF367800000130608006FF0DFF10A
:101A34006780000067800000130101FD232021035B
:101A4400232611022324810223229102232E310111
:101A5400232C4101232A51012328610123267101EA
:101A640023248101130906006384051C13840500E3
:101A740093090500EFF0DFFB9304B90093076001BD
:101A840063FC970E93F484FF1387040063CC040E65
:101A940063EA240F8327C4FF930A84FF13FAC7FF62
:101AA400338B4A01635CEA12938B81C203A68B00D9
:101AB40083264B006300661F13F6E6FF3306CB0054
:101AC40003264600137616006316061493F6C6FF23
:101AD4003306DA006358E60E93F71700639407029F
:101AE400032C84FF338C8A4183274C0093F7C7FF70
:101AF400B386D700B38B460163DAEB34B30BFA0039
:101B040063D4EB2C9305090013850900EFF08FC80B
:101B140013090500630C05048327C4FF130785FF1D
:101B240093F7E7FFB387FA006386E7281306CAFF33
:101B34009307400263E6C73013073001832604008D
:101B4400636EC720930705001307040023A0D70082
:101B54008326470023A2D7000327870023A4E70096
:101B64009305040013850900EF001065138509002F
:101B7400EFF05FEC6F00C001930400011307000154
:101B8400E3FA24F19307C00023A0F900130900002D
:101B94008320C10203248102832441028329C101D9
:101BA400032A8101832A4101032B0101832BC100F4
:101BB400032C810013050900032901021301010309
:101BC400678000008327CB0003278B00130A0600DD
:101BD400338BCA002326F70023A4E70083A74A0017
:101BE40033079A409306F00093F7170063ECE60678
:101BF400B367FA0023A2FA0083274B0093E7170088
:101C04002322FB0013850900EFF0DFE2130904002F
:101C14006FF01FF893F71700E39607EE032C84FF89
:101C2400338C8A4183274C0093F7C7FF6FF01FED75
:101C3400032481028320C102832441020329010277
:101C44008329C101032A8101832A4101032B010154
:101C5400832BC100032C81009305060013010103AB
:101C64006FF04FB3B3E7970023A2FA00B3859A004D
:101C74001367170023A2E50083274B009385850093
:101C84001385090093E717002322FB00EF00D052CD
:101C94006FF05FF793F6C6FF3306DA00938504010D
:101CA4006350B60E93F71700E39E07E4032C84FFFA
:101CB400338C8A4183274C0093F7C7FFB386D70040
:101CC400338B4601E34CBBE28327CC0003278C0013
:101CD4001306CAFF930640022326F70023A4E70055
:101CE40013098C0063ECC626930530010327040016
:101CF4009307090063F2C5022324EC000327440080
:101D04009307B0012326EC0063E2C726032784006F
:101D140093070C011304840023A0E7000327440065
:101D240023A2E7000327840023A4E70033079C00D1
:101D3400B3079B4023A4EB0093E717002322F7008B
:101D440083274C001385090093F71700B3E4970029
:101D540023229C00EFF01FCE6FF09FE32320D500D9
:101D6400832644001307B0012322D500636EC716EF
:101D74008326840013078400930785006FF01FDD1A
:101D8400B38A9A00B307964023A45B0193E7170034
:101D940023A2FA008327C4FF138509001309040052
:101DA40093F71700B3E49700232E94FEEFF09FC837
:101DB4006FF01FDE8327C5FF93F7C7FF330AFA00CE
:101DC400338B4A016FF09FE18327CC0003278C00FB
:101DD4001306CAFF930640022326F70023A4E70054
:101DE40013098C00330B7C0163E2C60E93053001AA
:101DF400032704009307090063F2C5022324EC00BF
:101E0400032744009307B0012326EC0063E0C710C6
:101E14000327840093070C011304840023A0E70024
:101E240003274400138A0B00930A0C0023A2E70043
:101E3400032784001304090023A4E7006FF01FDACA
:101E440093050400EFF0DFAC6FF09FD18327CB0044
:101E540003278B001306CAFF930640022326F700CC
:101E640023A4E70003278C008327CC0013098C00EC
:101E7400330B7C012326F70023A4E70063E8C604A0
:101E8400930630010327040093070900E3F8C6F81A
:101E94002324EC00032744009307B0012326EC001D
:101EA40003278400E3F8C7F62328EC000327C400C3
:101EB40093074002232AEC00032704016304F60677
:101EC40093078C01130404016FF05FF5930504007C
:101ED40013050900EFF0DFA313040900138A0B00B4
:101EE400930A0C006FF09FCF032784002324E5009E
:101EF4000327C4002326E500832604016302F604B5
:101F040013070401930705016FF05FC4832784005E
:101F14002328FC008327C400232AFC000327040190
:101F2400E310D6FA232CEC000327440193070C0298
:101F340013048401232EEC00032704006FF01FEE2A
:101F44002328D500832644011307840193078501C0
:101F5400232AD500832684016FF05FBF9305040014
:101F640013050900EFF0DF9A6FF05FDC832784002C
:101F74002328FC008327C400232AFC000327040130
:101F84006308D60093078C01130404016FF0DFD8B3
:101F9400232CEC000327440193070C02130484014F
:101FA400232EEC00032704006FF01FD7130101FF59
:101FB40023248100232291001304050013850500C6
:101FC4002326110023A60104EF1040369307F0FFE7
:101FD400630CF5008320C1000324810083244100A5
:101FE400130101016780000083A7C104E38407FE95
:101FF4008320C1002320F4000324810083244100B2
:102004001301010167800000130101FF23248100F3
:10201400138405008395E50023261100EF00507614
:1020240063400502832704058320C100B387A7000A
:102034002328F404032481001301010167800000B4
:102044008357C40037F7FFFF1307F7FFB3F7E70021
:102054008320C1002316F40003248100130101012D
:102064006780000013050000678000008397C500A7
:10207400130101FE232C8100232A9100232821012E
:1020840023263101232E110013F7071013840500B2
:10209400930405008395E50013090600938906005F
:1020A400631E070237F7FFFF1307F7FFB3F7E700D5
:1020B4002316F400032481018320C10193860900BF
:1020C400130609008329C1000329010113850400B3
:1020D40083244101130101026F00C008930620000C
:1020E40013060000EF00503D8317C4008315E4007D
:1020F4006FF05FFB130101FF2324810013840500AB
:102104008395E50023261100EF00103B9307F0FFB1
:102114006304F5028357C400371700008320C1000D
:10212400B3E7E7002328A4042316F4000324810062
:1021340013010101678000008357C40037F7FFFFD4
:102144001307F7FFB3F7E7008320C1002316F40059
:102154000324810013010101678000008395E500D9
:102164006F00801E130101FF1387050023248100E3
:10217400232291009305060013040500138606002C
:10218400130507002326110023A60104EF10C02322
:102194009307F0FF630CF5008320C1000324810042
:1021A40083244100130101016780000083A7C10457
:1021B400E38407FE8320C1002320F400032481006C
:1021C40083244100130101016780000083A74103B8
:1021D400130101FF232481002322910023261100EF
:1021E40093040500138405006386070003A787038F
:1021F400630407080317C400931707019376870045
:1022040093D7070163880608832604016388060AB6
:1022140013F617006308060203264401232404006E
:10222400130500003306C040232CC400638A060251
:102234008320C10003248100832441001301010190
:102244006780000013F6270093050000631406005E
:10225400832544012324B40013050000E39A06FCFB
:1022640093F70708E38607FC136707042316E400C3
:102274001305F0FF6FF0DFFB13850700EFE00FE8B5
:102284000317C400931707019376870093D70701B8
:10229400E39C06F693F607016382060893F747006A
:1022A40063940704832604011367870093170701C7
:1022B4002316E40093D70701E39C06F413F60728DA
:1022C40093050020E306B6F4930504001385040087
:1022D400EF0010250317C400832604019317070198
:1022E40093D707016FF0DFF283250403638E0500A3
:1022F400930704046388F50013850400EF00C06BA2
:102304000317C40023280402832604011377B7FDAE
:10231400232204002320D4006FF01FF993079000B8
:1023240023A0F400136707042316E4001305F0FF49
:102334006FF01FF0930505009306000013060000DC
:10234400130500006F00504A130101FF232481008C
:102354002322910013040500138505002326110090
:1023640023A60104EF00D05D9307F0FF630CF50092
:102374008320C1000324810083244100130101014F
:102384006780000083A7C104E38407FE8320C100A3
:102394002320F4000324810083244100130101015C
:1023A40067800000130101FF232481002322910090
:1023B4002320210113840500232611009304050022
:1023C400EF0080188327C40213090500638A0700FD
:1023D4008325C40113850400E780070063440506D0
:1023E4008357C40093F707086396070683250403FD
:1023F400638C0500930704046386F50013850400C9
:10240400EF00805B232804028325440463880500CD
:1024140013850400EF00405A23220404EFE00FCF99
:1024240023160400EFE0CFCE8320C10003248100F3
:10243400832441001305090003290100130101014C
:10244400678000008357C4001309F0FF93F707085F
:10245400E38E07F88325040113850400EF00C055BB
:102464006FF0DFF863840506130101FE232C81005D
:10247400232E11001304050063060500832785033A
:10248400638A07028397C500639C07008320C10108
:102494000324810113050000130101026780000079
:1024A40013050400032481018320C10113010102E7
:1024B4006FF05FEF2326B100EFE04FC48325C10026
:1024C4008397C500E38407FC6FF09FFD13050000AC
:1024D4006780000063060506130101FE232C8100BA
:1024E4001304050003A54103232E11006306050010
:1024F40083278503638A07028317C400639C07004C
:102504008320C1010324810113050000130101028A
:102514006780000093050400032481018320C10126
:10252400130101026FF01FE82326A100EFE00FBDA5
:102534008317C4000325C100E38407FC6FF09FFDEB
:1025440013050000678000008397C500130101FE96
:10255400232C810023263101232E1100232A9100EC
:102564002328210193F687001384050093090500AD
:10257400639C0610371700001307078083A64500E5
:10258400B3E7E7002396F5006356D01803278402C7
:10259400630C070C9397070193D70701B716000044
:1025A40083A40900B3F6D70023A009008325C4013E
:1025B400639806169306100013060000138509009D
:1025C400E70007009307F0FF630EF5188357C40074
:1025D400032784028325C40193F74700638E070011
:1025E40083264400832704033305D540638607000C
:1025F4008327C4033305F540130605009306000042
:1026040013850900E70007009307F0FF631EF51028
:1026140003A709008317C400630A07169306D001B1
:102624006306D700930660016314D70C8326040164
:1026340037F7FFFF1307F77FB3F7E7002316F4001C
:10264400232204002320D4008325040323A099001B
:10265400638C0500930704046386F5001385090061
:10266400EF00803523280402130500008320C101F4
:102674000324810183244101032901018329C10029
:10268400130101026780000003A90501E30E09FCA0
:1026940083A4050013970701135707011377370025
:1026A40023A02501B3842441930700006314070089
:1026B40083A745012324F400634890006FF0DFFAF8
:1026C4003309A900E35290FA832744028325C40105
:1026D400938604001306090013850900E7800700A8
:1026E400B384A440E34EA0FC8357C4001305F0FF59
:1026F40093E707048320C1012316F4000324810116
:1027040083244101032901018329C100130101022A
:102714006780000003A7C503E34AE0E66FF0DFF437
:10272400032504056FF05FEB8357C40037F7FFFF01
:102734001307F77FB3F7E700832604019397070194
:1027440093D7074113D7C7002316F40023220400AC
:102754002320D40093771700E38807EE2328A404EA
:102764006FF09FEE83A70900E38207E61307D00109
:102774006388E702130760016384E7028357C40098
:1027840093E707042316F4006FF05FEE37F7FFFFBB
:102794001307F77F83260401B3F7E7006FF09FFA6E
:1027A40023A09900130500006FF05FEC130101FEF4
:1027B400232C8100232E1100130405006306050059
:1027C40083278503638007028397C5006396070206
:1027D4008320C101032481011305000013010102B8
:1027E400678000002326B100EFE04F918325C100EC
:1027F4008397C500E38E07FC1305040003248101BD
:102804008320C101130101026FF01FD46306050682
:10281400130101FE232C81001304050003A54103C9
:10282400232E11006306050083278503638A0702AC
:102834008317C400639C07008320C1010324810122
:1028440013050000130101026780000093050400D2
:10285400032481018320C101130101026FF0DFCE43
:102864002326A100EFE08F898317C4000325C1004C
:10287400E38407FC6FF09FFD03A50103B725010066
:102884009385057B6FE0CFE5130101FE232631011B
:10289400232C8100232A9100232821012324410190
:1028A400232E1100138A050013090500938981C2A0
:1028B400EFF00F9803A78900B71700001384F7FE01
:1028C400832447003304444193F4C4FF3304940045
:1028D4001354C4001304F4FF1314C400634EF4002F
:1028E4009305000013050900EFF04FEC83A789005E
:1028F400B38797006308F50213050900EFF08F937F
:102904008320C1010324810183244101032901019E
:102914008329C100032A8100130500001301010269
:1029240067800000B305804013050900EFF00FE84D
:102934009307F0FF6308F5049387010703A70700D3
:1029440083A68900B384844093E41400330487404D
:102954001305090023A2960023A08700EFF08F8DB2
:102964008320C1010324810183244101032901013E
:102974008329C100032A81001305100013010102F9
:10298400678000009305000013050900EFF00FE2D3
:1029940003A789009306F000B307E540E3DEF6F4ED
:1029A40083A6810393E717002322F7003305D5405C
:1029B40023A8A1066FF05FF463840512130101FFDD
:1029C400232481002322910013840500930405002D
:1029D40023261100EFF0CF850328C4FF130784FFDB
:1029E4009377E8FF3306F700938581C28326460078
:1029F40003A5850093F6C6FF6306C51A2322D600F5
:102A0400137818003305D600631E0808032384FFD7
:102A1400032845003307674083288700138501C3D3
:102A2400B387670013781800638EA8120323C700C6
:102A340023A6680023241301630E081C93E61700E1
:102A44002322D7002320F6009306F01F63E6F60A3C
:102A540093F687FF9386860003A54500B386D500C9
:102A640003A6060013D8570093071000B397070175
:102A7400B3E7A700138586FF2326A7002324C700F6
:102A840023A2F50023A0E6002326E6000324810008
:102A94008320C10013850400832441001301010134
:102AA4006FE05FF90325450013751500631C0502EB
:102AB400B387D700138501C38326860093E81700E4
:102AC4003308F7006384A6160326C60023A6C600AF
:102AD4002324D600232217012320F8006FF0DFF609
:102AE4006780000093E61700232ED4FE2320F6000F
:102AF4009306F01FE3FEF6F493D697001306400006
:102B04006368D60E93D667001388960313868603EC
:102B1400131838003388050183260800130888FF3A
:102B24006304D81203A646001376C6FF63F6C700F3
:102B340083A68600E318D8FE03A8C600232607014F
:102B44002324D700032481008320C1002324E80028
:102B5400138504008324410023A6E6001301010128
:102B64006FE05FED631208148325C6000326860018
:102B7400B387F600032481002326B60023A4C500EE
:102B840093E617008320C1002322D7001385040095
:102B94003307F700832441002320F70013010101C8
:102BA4006FE05FE913781800B387D7006310080259
:102BB400032584FF3307A7408326C7000326870025
:102BC400B387A7002326D60023A4C60013E6170064
:102BD40083A6C1032322C70023A4E500E3E8D7EAC0
:102BE40083A5810413850400EFF01FCA6FF01FEA68
:102BF400130640016374D602130640056364D606C7
:102C040093D6C7001388F6061386E6061318380011
:102C14006FF05FF0B387D7006FF01FEA1388C60523
:102C24001386B605131838006FF0DFEE23AAE5000B
:102C340023A8E5002326A7002324A70023221701A5
:102C44002320F8006FF09FE403A5450013562640A7
:102C5400930710003396C7003366A60023A2C5006D
:102C64006FF0DFED13064015636CD60093D6F700C2
:102C74001388860713867607131838006FF09FE9C8
:102C840013064055636CD60093D627011388D607E4
:102C94001386C607131838006FF0DFE71308803F68
:102CA4001306E0076FF01FE793E617002322D7000F
:102CB4002320F6006FF09FDD130101FF1387050049
:102CC40023248100232291009305060013040500A8
:102CD40013860600130507002326110023A601040A
:102CE400EF00C05A9307F0FF630CF5008320C10086
:102CF4000324810083244100130101016780000043
:102D040083A7C104E38407FE8320C1002320F400C9
:102D14000324810083244100130101016780000022
:102D240083D7C500130101F8232C8106232E110635
:102D3400232A910623282107232631072324410728
:102D440013F7270013840500630C070293873504E7
:102D540023A0F50023A8F5009307100023AAF5008B
:102D64008320C10703248107832441070329010722
:102D74008329C106032A8106130101086780000024
:102D84008395E5009304050063CC050813068100D0
:102D9400EF00002F634405088327C10037F90000C2
:102DA400130A00403379F900B7E7FFFF3309F9004C
:102DB400B7170000133919009389078093050A0097
:102DC40013850400EFE00F9D8317C400630E05060E
:102DD400370701001307C75A23AEE40293E7070835
:102DE4002316F4002320A4002328A400232A44014A
:102DF40063180908B3E737018320C1072316F400D9
:102E04000324810783244107032901078329C10679
:102E1400032A810613010108678000008357C40058
:102E240093F707081309000063860704130A0004D4
:102E340093050A0013850400EFE0CF958317C400BF
:102E440093090000E31605F813F70720E31A07F0C7
:102E540093F7C7FF93E72700130734042316F400FE
:102E6400930710002320E4002328E400232AF4001D
:102E74006FF01FEF130A0040930900006FF01FF476
:102E84008315E40013850400EF00C02563160500D4
:102E94008317C4006FF01FF68357C40093F7C7FF6E
:102EA40093E717009397070193D707416FF09FF4B7
:102EB400130101F923248106138405008395E50099
:102EC40023229106232021072326110693040600BA
:102ED4001389060063CA050413068100EF00401A33
:102EE400634405040327C100B7F700008320C1062B
:102EF400B3F7E70037E7FFFFB387E7000324810652
:102F040093B717002320F9009307004023A0F4008F
:102F140037150000832441060329010613050580A3
:102F240013010107678000008317C40023200900F0
:102F340093F70708638407028320C10603248106EC
:102F44009307000423A0F400032901068324410607
:102F54001305000013010107678000008320C106E8
:102F6400032481069307004023A0F40003290106EB
:102F74008324410613050000130101076780000044
:102F8400130101FF138705002324810023229100EC
:102F940093050600130405001386060013050700B5
:102FA4002326110023A60104EF0040339307F0FF0A
:102FB400630CF5008320C1000324810083244100B5
:102FC400130101016780000083A7C104E38407FEA5
:102FD4008320C1002320F4000324810083244100C2
:102FE400130101016780000003A7010383278714ED
:102FF400638C070403A747001308F001634EE80637
:103004001318270063060502338307012324C3082A
:1030140083A88718130610003316E600B3E8C80027
:1030240023A417192324D310930620006304D50284
:103034001307170023A2E700B387070123A4B700EF
:1030440013050000678000009307C7142324F714B6
:103054006FF05FFA83A6C7181307170023A2E700CF
:1030640033E6C60023A6C718B387070123A4B70015
:1030740013050000678000001305F0FF678000005F
:10308400130101FF138705002324810023229100EB
:1030940013040500930506001305070023261100F9
:1030A40023A60104EF0080139307F0FF630CF500DF
:1030B4008320C10003248100832441001301010102
:1030C4006780000083A7C104E38407FE8320C10056
:1030D4002320F4000324810083244100130101010F
:1030E40067800000130101FF232481002322910043
:1030F40013040500138505002326110023A60104EB
:10310400EF00C0149307F0FF630CF5008320C100A7
:10311400032481008324410013010101678000001E
:1031240083A7C104E38407FE8320C1002320F400A5
:1031340003248100832441001301010167800000FE
:10314400130101FF232611002324810093050000AD
:103154001306000093060000130700009307000005
:10316400930890037300000013040500634C0500EA
:103174008320C1001305040003248100130101010D
:103184006780000033048040EF0040332320850033
:103194001304F0FF6FF0DFFD930500001306000039
:1031A4009306000013070000930700009308D0055E
:1031B40073000000634405006F000000130101FF69
:1031C40023248100130405002326110033048040C6
:1031D400EF00C02E232085006F000000130101F7CB
:1031E40023229108232611089384050023248108AF
:1031F4009305010013060000930600001307000066
:1032040093070000930800057300000013040500F1
:10321400634405021385040093050100EF00C01FF9
:103224008320C10813050400032481088324410872
:10323400130101096780000033048040EF00002877
:10324400232085001304F0FF6FF0DFFC130101F964
:103254009305810023261106EFF05FF89307F0FF32
:10326400630EF5000325C1008320C1061355D50064
:103274001375150013010107678000008320C10640
:10328400130500001301010767800000130101FF0B
:103294002326110023248100930600001307000055
:1032A400930700009308E003730000001304050073
:1032B400634C05008320C10013050400032481002E
:1032C400130101016780000033048040EF00001FF8
:1032D400232085001304F0FF6FF0DFFD130101FFCD
:1032E4002326110023248100930600001307000005
:1032F400930700009308F003730000001304050013
:10330400634C05008320C1001305040003248100DD
:10331400130101016780000033048040EF00001AAC
:10332400232085001304F0FF6FF0DFFD83A7010560
:10333400130101FF232611001308050063980702F7
:103344001305000093050000130600009306000017
:10335400130700009308600D730000001307F0FFCB
:10336400930705006304E50423A8A1043305F800CA
:1033740093050000130600009306000013070000E5
:10338400930700009308600D7300000083A70105F4
:103394003308F800631C05018320C10023A8A1049D
:1033A400138507001301010167800000EF0000117D
:1033B4008320C1009307C0002320F5001305F0FF0C
:1033C4001301010167800000130101FF232611008E
:1033D40023248100930600001307000093070000D4
:1033E400930800047300000013040500634C0500F7
:1033F4008320C1001305040003248100130101018B
:103404006780000033048040EF00400B23208500D8
:103414001304F0FF6FF0DFFD130101FF83A34501E7
:1034240083A2850183AFC50103AF050283AE050303
:1034340003AE050403A3850303A8850483A8C50478
:1034440003A68505232681002324910003A40501F6
:1034540083A485002322210103A9050083A6C505B1
:1034640003A7850683A7C50623102501231195000C
:103474002322850023147500231555002316F50116
:103484002317E5012328D5012326C5052324650434
:10349400232C0501232E15012324C5022326D5023E
:1034A4000324C100232CE502232EF502832481008A
:1034B40003294100130101016780000003A54103B2
:1034C40067800000130605001305000093F615003D
:1034D400638406003305C50093D515001316160042
:1034E400E39605FE678000006340050663C6050693
:1034F40013860500930505001305F0FF630C06020F
:1035040093061000637AB6006358C00013161600C1
:1035140093961600E36AB6FE1305000063E6C50041
:10352400B385C5403365D50093D6160013561600EF
:10353400E39606FE6780000093820000EFF05FFBD5
:1035440013850500678002003305A0406348B0007E
:10355400B305B0406FF0DFF9B305B04093820000CB
:10356400EFF01FF93305A04067800200938200004A
:1035740063CA0500634C0500EFF09FF7138505004F
:1035840067800200B305B040E35805FE3305A04050
:0C359400EFF01FF63305B0406780020026
:0E35A00048656C6C6F20776F726C64000A00D7
:0445B0000000000007
:0845B400740001002401010064
:0445BC00D800010022
:1045C00000000000AC480100144901007C490100D2
:1045D00000000000000000000000000000000000DB
:1045E00000000000000000000000000000000000CB
:1045F00000000000000000000000000000000000BB
:1046000000000000000000000000000000000000AA
:10461000000000000000000000000000000000009A
:10462000000000000000000000000000000000008A
:10463000000000000000000000000000000000007A
:10464000000000000000000000000000000000006A
:10465000000000000000000000000000000000005A
:104660000000000000000000010000000000000049
:104670000E33CDAB34126DE6ECDE05000B0000000E
:10468000000000000000000000000000000000002A
:10469000000000000000000000000000000000001A
:1046A000000000000000000000000000000000000A
:1046B00000000000000000000000000000000000FA
:1049F000E8490100E8490100F0490100F0490100DF
:104A0000F8490100F8490100004A0100004A01008C
:104A1000084A0100084A0100104A0100104A01003A
:104A2000184A0100184A0100204A0100204A0100EA
:104A3000284A0100284A0100304A0100304A01009A
:104A4000384A0100384A0100404A0100404A01004A
:104A5000484A0100484A0100504A0100504A0100FA
:104A6000584A0100584A0100604A0100604A0100AA
:104A7000684A0100684A0100704A0100704A01005A
:104A8000784A0100784A0100804A0100804A01000A
:104A9000884A0100884A0100904A0100904A0100BA
:104AA000984A0100984A0100A04A0100A04A01006A
:104AB000A84A0100A84A0100B04A0100B04A01001A
:104AC000B84A0100B84A0100C04A0100C04A0100CA
:104AD000C84A0100C84A0100D04A0100D04A01007A
:104AE000D84A0100D84A0100E04A0100E04A01002A
:104AF000E84A0100E84A0100F04A0100F04A0100DA
:104B0000F84A0100F84A0100004B0100004B010087
:104B1000084B0100084B0100104B0100104B010035
:104B2000184B0100184B0100204B0100204B0100E5
:104B3000284B0100284B0100304B0100304B010095
:104B4000384B0100384B0100404B0100404B010045
:104B5000484B0100484B0100504B0100504B0100F5
:104B6000584B0100584B0100604B0100604B0100A5
:104B7000684B0100684B0100704B0100704B010055
:104B8000784B0100784B0100804B0100804B010005
:104B9000884B0100884B0100904B0100904B0100B5
:104BA000984B0100984B0100A04B0100A04B010065
:104BB000A84B0100A84B0100B04B0100B04B010015
:104BC000B84B0100B84B0100C04B0100C04B0100C5
:104BD000C84B0100C84B0100D04B0100D04B010075
:104BE000D84B0100D84B0100E04B0100E04B010025
:104BF000E84B0100E84B0100F04B0100F04B0100D5
:104C0000F84B0100F84B0100004C0100004C010082
:104C1000084C0100084C0100104C0100104C010030
:104C2000184C0100184C0100204C0100204C0100E0
:104C3000284C0100284C0100304C0100304C010090
:104C4000384C0100384C0100404C0100404C010040
:104C5000484C0100484C0100504C0100504C0100F0
:104C6000584C0100584C0100604C0100604C0100A0
:104C7000684C0100684C0100704C0100704C010050
:104C8000784C0100784C0100804C0100804C010000
:104C9000884C0100884C0100904C0100904C0100B0
:104CA000984C0100984C0100A04C0100A04C010060
:104CB000A84C0100A84C0100B04C0100B04C010010
:104CC000B84C0100B84C0100C04C0100C04C0100C0
:104CD000C84C0100C84C0100D04C0100D04C010070
:104CE000D84C0100D84C0100E04C0100E04C010020
:104CF000E84C0100E84C0100F04C0100F04C0100D0
:104D0000F84C0100F84C0100004D0100004D01007D
:104D1000084D0100084D0100104D0100104D01002B
:104D2000184D0100184D0100204D0100204D0100DB
:104D3000284D0100284D0100304D0100304D01008B
:104D4000384D0100384D0100404D0100404D01003B
:104D5000484D0100484D0100504D0100504D0100EB
:104D6000584D0100584D0100604D0100604D01009B
:104D7000684D0100684D0100704D0100704D01004B
:104D8000784D0100784D0100804D0100804D0100FB
:104D9000884D0100884D0100904D0100904D0100AB
:104DA000984D0100984D0100A04D0100A04D01005B
:104DB000A84D0100A84D0100B04D0100B04D01000B
:104DC000B84D0100B84D0100C04D0100C04D0100BB
:104DD000C84D0100C84D0100D04D0100D04D01006B
:104DE000D84D0100D84D0100E04D0100E04D01001B
:104DF000C0450100C0450100FFFFFFFF00000200A9
:040000031000008C5D
:00000001FF
